{"abi":[{"type":"constructor","inputs":[{"name":"_oracle","type":"address","internalType":"address"}],"stateMutability":"nonpayable"},{"type":"function","name":"BETTING_DURATION","inputs":[],"outputs":[{"name":"","type":"uint256","internalType":"uint256"}],"stateMutability":"view"},{"type":"function","name":"ROUND_DURATION","inputs":[],"outputs":[{"name":"","type":"uint256","internalType":"uint256"}],"stateMutability":"view"},{"type":"function","name":"canDistribute","inputs":[],"outputs":[{"name":"","type":"bool","internalType":"bool"}],"stateMutability":"view"},{"type":"function","name":"deposit","inputs":[{"name":"_zone","type":"uint8","internalType":"enum Cheeznad.Zone"}],"outputs":[],"stateMutability":"payable"},{"type":"function","name":"distribute","inputs":[{"name":"_winningZone","type":"uint8","internalType":"enum Cheeznad.Zone"}],"outputs":[],"stateMutability":"nonpayable"},{"type":"function","name":"getBettingTimeRemaining","inputs":[],"outputs":[{"name":"","type":"uint256","internalType":"uint256"}],"stateMutability":"view"},{"type":"function","name":"getCurrentRoundPhase","inputs":[],"outputs":[{"name":"","type":"string","internalType":"string"}],"stateMutability":"view"},{"type":"function","name":"getDepositorByIndex","inputs":[{"name":"_zone","type":"uint8","internalType":"enum Cheeznad.Zone"},{"name":"_index","type":"uint256","internalType":"uint256"}],"outputs":[{"name":"","type":"address","internalType":"address"}],"stateMutability":"view"},{"type":"function","name":"getRoundStartTime","inputs":[],"outputs":[{"name":"","type":"uint256","internalType":"uint256"}],"stateMutability":"view"},{"type":"function","name":"getRoundTimeRemaining","inputs":[],"outputs":[{"name":"","type":"uint256","internalType":"uint256"}],"stateMutability":"view"},{"type":"function","name":"getUserDeposit","inputs":[{"name":"_zone","type":"uint8","internalType":"enum Cheeznad.Zone"},{"name":"_user","type":"address","internalType":"address"}],"outputs":[{"name":"","type":"uint256","internalType":"uint256"}],"stateMutability":"view"},{"type":"function","name":"getZoneDepositorCount","inputs":[{"name":"_zone","type":"uint8","internalType":"enum Cheeznad.Zone"}],"outputs":[{"name":"","type":"uint256","internalType":"uint256"}],"stateMutability":"view"},{"type":"function","name":"getZoneTotal","inputs":[{"name":"_zone","type":"uint8","internalType":"enum Cheeznad.Zone"}],"outputs":[{"name":"","type":"uint256","internalType":"uint256"}],"stateMutability":"view"},{"type":"function","name":"isBettingOpen","inputs":[],"outputs":[{"name":"","type":"bool","internalType":"bool"}],"stateMutability":"view"},{"type":"function","name":"isUserDepositor","inputs":[{"name":"_zone","type":"uint8","internalType":"enum Cheeznad.Zone"},{"name":"_user","type":"address","internalType":"address"}],"outputs":[{"name":"","type":"bool","internalType":"bool"}],"stateMutability":"view"},{"type":"function","name":"lastDistributionTime","inputs":[],"outputs":[{"name":"","type":"uint256","internalType":"uint256"}],"stateMutability":"view"},{"type":"function","name":"oracle","inputs":[],"outputs":[{"name":"","type":"address","internalType":"address"}],"stateMutability":"view"},{"type":"function","name":"roundStartTime","inputs":[],"outputs":[{"name":"","type":"uint256","internalType":"uint256"}],"stateMutability":"view"},{"type":"function","name":"updateOracle","inputs":[{"name":"_newOracle","type":"address","internalType":"address"}],"outputs":[],"stateMutability":"nonpayable"},{"type":"function","name":"zones","inputs":[{"name":"","type":"uint8","internalType":"enum Cheeznad.Zone"}],"outputs":[{"name":"totalDeposited","type":"uint256","internalType":"uint256"},{"name":"depositorCount","type":"uint256","internalType":"uint256"}],"stateMutability":"view"},{"type":"event","name":"Deposit","inputs":[{"name":"user","type":"address","indexed":true,"internalType":"address"},{"name":"zone","type":"uint8","indexed":true,"internalType":"enum Cheeznad.Zone"},{"name":"amount","type":"uint256","indexed":false,"internalType":"uint256"}],"anonymous":false},{"type":"event","name":"Distribution","inputs":[{"name":"winningZone","type":"uint8","indexed":true,"internalType":"enum Cheeznad.Zone"},{"name":"totalAmount","type":"uint256","indexed":false,"internalType":"uint256"},{"name":"timestamp","type":"uint256","indexed":false,"internalType":"uint256"}],"anonymous":false},{"type":"event","name":"OracleUpdated","inputs":[{"name":"newOracle","type":"address","indexed":true,"internalType":"address"}],"anonymous":false},{"type":"event","name":"RoundStarted","inputs":[{"name":"roundStartTime","type":"uint256","indexed":false,"internalType":"uint256"}],"anonymous":false}],"bytecode":{"object":"0x608060405234801561000f575f5ffd5b50604051611bda380380611bda8339818101604052810190610031919061011c565b8060015f6101000a81548173ffffffffffffffffffffffffffffffffffffffff021916908373ffffffffffffffffffffffffffffffffffffffff16021790555042600381905550426002819055507f33a701182892fd888ed152ca2ac23771a32e814469b7cd255965471e1af3a6596003546040516100b0919061015f565b60405180910390a150610178565b5f5ffd5b5f73ffffffffffffffffffffffffffffffffffffffff82169050919050565b5f6100eb826100c2565b9050919050565b6100fb816100e1565b8114610105575f5ffd5b50565b5f81519050610116816100f2565b92915050565b5f60208284031215610131576101306100be565b5b5f61013e84828501610108565b91505092915050565b5f819050919050565b61015981610147565b82525050565b5f6020820190506101725f830184610150565b92915050565b611a55806101855f395ff3fe60806040526004361061011e575f3560e01c8063b67ae1cc1161009f578063dd4f8f7411610063578063dd4f8f74146103f1578063ebe41b731461041b578063ee4eb58614610437578063fb878cdc14610461578063ffd0f68c146104895761011e565b8063b67ae1cc146102e9578063b946cf9e14610325578063c0da200514610361578063d060be091461039d578063d677947e146103c75761011e565b806375b17350116100e657806375b173501461020457806376001dc41461022e5780637dc0d1d01461026b5780638d13f7de146102955780639024342e146102bf5761011e565b80631cb44dfc146101225780633fba1aeb1461014a5780634363674a14610174578063595112fe146101b05780636641ea08146101da575b5f5ffd5b34801561012d575f5ffd5b5061014860048036038101906101439190611271565b6104c5565b005b348015610155575f5ffd5b5061015e6105da565b60405161016b91906112b4565b60405180910390f35b34801561017f575f5ffd5b5061019a6004803603810190610195919061131a565b6105df565b6040516101a79190611367565b60405180910390f35b3480156101bb575f5ffd5b506101c46106c7565b6040516101d191906113f0565b60405180910390f35b3480156101e5575f5ffd5b506101ee6107a2565b6040516101fb91906112b4565b60405180910390f35b34801561020f575f5ffd5b506102186107a7565b60405161022591906112b4565b60405180910390f35b348015610239575f5ffd5b50610254600480360381019061024f9190611410565b6107ad565b60405161026292919061143b565b60405180910390f35b348015610276575f5ffd5b5061027f6107cc565b60405161028c9190611367565b60405180910390f35b3480156102a0575f5ffd5b506102a96107f1565b6040516102b691906112b4565b60405180910390f35b3480156102ca575f5ffd5b506102d361082f565b6040516102e091906112b4565b60405180910390f35b3480156102f4575f5ffd5b5061030f600480360381019061030a9190611410565b61086d565b60405161031c91906112b4565b60405180910390f35b348015610330575f5ffd5b5061034b60048036038101906103469190611410565b6108ad565b60405161035891906112b4565b60405180910390f35b34801561036c575f5ffd5b5061038760048036038101906103829190611462565b6108ec565b60405161039491906114ba565b60405180910390f35b3480156103a8575f5ffd5b506103b1610974565b6040516103be91906112b4565b60405180910390f35b3480156103d2575f5ffd5b506103db61097d565b6040516103e891906114ba565b60405180910390f35b3480156103fc575f5ffd5b50610405610995565b60405161041291906112b4565b60405180910390f35b61043560048036038101906104309190611410565b61099b565b005b348015610442575f5ffd5b5061044b610c44565b60405161045891906114ba565b60405180910390f35b34801561046c575f5ffd5b5061048760048036038101906104829190611410565b610c5c565b005b348015610494575f5ffd5b506104af60048036038101906104aa9190611462565b610ffe565b6040516104bc91906112b4565b60405180910390f35b60015f9054906101000a900473ffffffffffffffffffffffffffffffffffffffff1673ffffffffffffffffffffffffffffffffffffffff163373ffffffffffffffffffffffffffffffffffffffff1614610554576040517f08c379a000000000000000000000000000000000000000000000000000000000815260040161054b90611543565b60405180910390fd5b8060015f6101000a81548173ffffffffffffffffffffffffffffffffffffffff021916908373ffffffffffffffffffffffffffffffffffffffff1602179055508073ffffffffffffffffffffffffffffffffffffffff167f3df77beb5db05fcdd70a30fc8adf3f83f9501b68579455adbd100b818094039460405160405180910390a250565b603c81565b5f5f5f8460048111156105f5576105f4611561565b5b600481111561060757610606611561565b5b81526020019081526020015f20600401548210610659576040517f08c379a0000000000000000000000000000000000000000000000000000000008152600401610650906115d8565b60405180910390fd5b5f5f84600481111561066e5761066d611561565b5b60048111156106805761067f611561565b5b81526020019081526020015f206002015f8381526020019081526020015f205f9054906101000a900473ffffffffffffffffffffffffffffffffffffffff16905092915050565b60606106d1610c44565b15610713576040518060400160405280600781526020017f42455454494e4700000000000000000000000000000000000000000000000000815250905061079f565b60b46003546107229190611623565b421015610766576040518060400160405280600781526020017f57414954494e4700000000000000000000000000000000000000000000000000815250905061079f565b6040518060400160405280600881526020017f434f4d504c45544500000000000000000000000000000000000000000000000081525090505b90565b60b481565b60025481565b5f602052805f5260405f205f91509050805f0154908060040154905082565b60015f9054906101000a900473ffffffffffffffffffffffffffffffffffffffff1681565b5f60b46003546108019190611623565b421061080f575f905061082c565b4260b460035461081f9190611623565b6108299190611656565b90505b90565b5f603c60035461083f9190611623565b421061084d575f905061086a565b42603c60035461085d9190611623565b6108679190611656565b90505b90565b5f5f5f83600481111561088357610882611561565b5b600481111561089557610894611561565b5b81526020019081526020015f20600401549050919050565b5f5f5f8360048111156108c3576108c2611561565b5b60048111156108d5576108d4611561565b5b81526020019081526020015f205f01549050919050565b5f5f5f84600481111561090257610901611561565b5b600481111561091457610913611561565b5b81526020019081526020015f206003015f8373ffffffffffffffffffffffffffffffffffffffff1673ffffffffffffffffffffffffffffffffffffffff1681526020019081526020015f205f9054906101000a900460ff16905092915050565b5f600354905090565b5f60b460035461098d9190611623565b421015905090565b60035481565b5f34116109dd576040517f08c379a00000000000000000000000000000000000000000000000000000000081526004016109d4906116d3565b60405180910390fd5b6109e5610c44565b610a24576040517f08c379a0000000000000000000000000000000000000000000000000000000008152600401610a1b9061173b565b60405180910390fd5b5f5f5f836004811115610a3a57610a39611561565b5b6004811115610a4c57610a4b611561565b5b81526020019081526020015f209050806003015f3373ffffffffffffffffffffffffffffffffffffffff1673ffffffffffffffffffffffffffffffffffffffff1681526020019081526020015f205f9054906101000a900460ff16610b715733816002015f836004015481526020019081526020015f205f6101000a81548173ffffffffffffffffffffffffffffffffffffffff021916908373ffffffffffffffffffffffffffffffffffffffff1602179055506001816003015f3373ffffffffffffffffffffffffffffffffffffffff1673ffffffffffffffffffffffffffffffffffffffff1681526020019081526020015f205f6101000a81548160ff021916908315150217905550806004015f815480929190610b6b90611759565b91905055505b34816001015f3373ffffffffffffffffffffffffffffffffffffffff1673ffffffffffffffffffffffffffffffffffffffff1681526020019081526020015f205f828254610bbf9190611623565b9250508190555034815f015f828254610bd89190611623565b92505081905550816004811115610bf257610bf1611561565b5b3373ffffffffffffffffffffffffffffffffffffffff167fe6ea2883ec66613be5cdd4954e8c4919bdb7982e6e2d907011bc051bfcde7fe434604051610c3891906112b4565b60405180910390a35050565b5f603c600354610c549190611623565b421115905090565b60015f9054906101000a900473ffffffffffffffffffffffffffffffffffffffff1673ffffffffffffffffffffffffffffffffffffffff163373ffffffffffffffffffffffffffffffffffffffff1614610ceb576040517f08c379a0000000000000000000000000000000000000000000000000000000008152600401610ce290611543565b60405180910390fd5b610cf361097d565b610d32576040517f08c379a0000000000000000000000000000000000000000000000000000000008152600401610d29906117ea565b60405180910390fd5b5f4790505f8111610d78576040517f08c379a0000000000000000000000000000000000000000000000000000000008152600401610d6f90611852565b60405180910390fd5b5f5f5f846004811115610d8e57610d8d611561565b5b6004811115610da057610d9f611561565b5b81526020019081526020015f2090505f815f015411610df4576040517f08c379a0000000000000000000000000000000000000000000000000000000008152600401610deb906118ba565b60405180910390fd5b5f5f90505b8160040154811015610f5d575f826002015f8381526020019081526020015f205f9054906101000a900473ffffffffffffffffffffffffffffffffffffffff1690505f836001015f8373ffffffffffffffffffffffffffffffffffffffff1673ffffffffffffffffffffffffffffffffffffffff1681526020019081526020015f205490505f811115610f4e575f845f01548287610e9791906118d8565b610ea19190611946565b90505f8373ffffffffffffffffffffffffffffffffffffffff1682604051610ec8906119a3565b5f6040518083038185875af1925050503d805f8114610f02576040519150601f19603f3d011682016040523d82523d5f602084013e610f07565b606091505b5050905080610f4b576040517f08c379a0000000000000000000000000000000000000000000000000000000008152600401610f4290611a01565b60405180910390fd5b50505b50508080600101915050610df9565b50610f6661107a565b4260038190555042600281905550826004811115610f8757610f86611561565b5b7f407b0b970273a32c25454089bf9df90dfa03ca38330d57729b4a12b106086e6e8342604051610fb892919061143b565b60405180910390a27f33a701182892fd888ed152ca2ac23771a32e814469b7cd255965471e1af3a659600354604051610ff191906112b4565b60405180910390a1505050565b5f5f5f84600481111561101457611013611561565b5b600481111561102657611025611561565b5b81526020019081526020015f206001015f8373ffffffffffffffffffffffffffffffffffffffff1673ffffffffffffffffffffffffffffffffffffffff1681526020019081526020015f2054905092915050565b5f5f90505b6005811015611210575f81600481111561109c5761109b611561565b5b90505f5f5f8360048111156110b4576110b3611561565b5b60048111156110c6576110c5611561565b5b81526020019081526020015f2090505f5f90505b81600401548110156111ef575f826002015f8381526020019081526020015f205f9054906101000a900473ffffffffffffffffffffffffffffffffffffffff169050826001015f8273ffffffffffffffffffffffffffffffffffffffff1673ffffffffffffffffffffffffffffffffffffffff1681526020019081526020015f205f9055826003015f8273ffffffffffffffffffffffffffffffffffffffff1673ffffffffffffffffffffffffffffffffffffffff1681526020019081526020015f205f6101000a81549060ff0219169055826002015f8381526020019081526020015f205f6101000a81549073ffffffffffffffffffffffffffffffffffffffff02191690555080806001019150506110da565b505f81600401819055505f815f01819055505050808060010191505061107f565b50565b5f5ffd5b5f73ffffffffffffffffffffffffffffffffffffffff82169050919050565b5f61124082611217565b9050919050565b61125081611236565b811461125a575f5ffd5b50565b5f8135905061126b81611247565b92915050565b5f6020828403121561128657611285611213565b5b5f6112938482850161125d565b91505092915050565b5f819050919050565b6112ae8161129c565b82525050565b5f6020820190506112c75f8301846112a5565b92915050565b600581106112d9575f5ffd5b50565b5f813590506112ea816112cd565b92915050565b6112f98161129c565b8114611303575f5ffd5b50565b5f81359050611314816112f0565b92915050565b5f5f604083850312156113305761132f611213565b5b5f61133d858286016112dc565b925050602061134e85828601611306565b9150509250929050565b61136181611236565b82525050565b5f60208201905061137a5f830184611358565b92915050565b5f81519050919050565b5f82825260208201905092915050565b8281835e5f83830152505050565b5f601f19601f8301169050919050565b5f6113c282611380565b6113cc818561138a565b93506113dc81856020860161139a565b6113e5816113a8565b840191505092915050565b5f6020820190508181035f83015261140881846113b8565b905092915050565b5f6020828403121561142557611424611213565b5b5f611432848285016112dc565b91505092915050565b5f60408201905061144e5f8301856112a5565b61145b60208301846112a5565b9392505050565b5f5f6040838503121561147857611477611213565b5b5f611485858286016112dc565b92505060206114968582860161125d565b9150509250929050565b5f8115159050919050565b6114b4816114a0565b82525050565b5f6020820190506114cd5f8301846114ab565b92915050565b7f4f6e6c79206f7261636c652063616e2063616c6c20746869732066756e6374695f8201527f6f6e000000000000000000000000000000000000000000000000000000000000602082015250565b5f61152d60228361138a565b9150611538826114d3565b604082019050919050565b5f6020820190508181035f83015261155a81611521565b9050919050565b7f4e487b71000000000000000000000000000000000000000000000000000000005f52602160045260245ffd5b7f496e646578206f7574206f6620626f756e6473000000000000000000000000005f82015250565b5f6115c260138361138a565b91506115cd8261158e565b602082019050919050565b5f6020820190508181035f8301526115ef816115b6565b9050919050565b7f4e487b71000000000000000000000000000000000000000000000000000000005f52601160045260245ffd5b5f61162d8261129c565b91506116388361129c565b92508282019050808211156116505761164f6115f6565b5b92915050565b5f6116608261129c565b915061166b8361129c565b9250828203905081811115611683576116826115f6565b5b92915050565b7f4465706f736974206d7573742062652067726561746572207468616e203000005f82015250565b5f6116bd601e8361138a565b91506116c882611689565b602082019050919050565b5f6020820190508181035f8301526116ea816116b1565b9050919050565b7f42657474696e672077696e646f7720697320636c6f73656400000000000000005f82015250565b5f61172560188361138a565b9150611730826116f1565b602082019050919050565b5f6020820190508181035f83015261175281611719565b9050919050565b5f6117638261129c565b91507fffffffffffffffffffffffffffffffffffffffffffffffffffffffffffffffff8203611795576117946115f6565b5b600182019050919050565b7f526f756e64206e6f7420726561647920666f7220646973747269627574696f6e5f82015250565b5f6117d460208361138a565b91506117df826117a0565b602082019050919050565b5f6020820190508181035f830152611801816117c8565b9050919050565b7f4e6f2066756e647320746f2064697374726962757465000000000000000000005f82015250565b5f61183c60168361138a565b915061184782611808565b602082019050919050565b5f6020820190508181035f83015261186981611830565b9050919050565b7f57696e6e696e67207a6f6e6520686173206e6f206465706f73697473000000005f82015250565b5f6118a4601c8361138a565b91506118af82611870565b602082019050919050565b5f6020820190508181035f8301526118d181611898565b9050919050565b5f6118e28261129c565b91506118ed8361129c565b92508282026118fb8161129c565b91508282048414831517611912576119116115f6565b5b5092915050565b7f4e487b71000000000000000000000000000000000000000000000000000000005f52601260045260245ffd5b5f6119508261129c565b915061195b8361129c565b92508261196b5761196a611919565b5b828204905092915050565b5f81905092915050565b50565b5f61198e5f83611976565b915061199982611980565b5f82019050919050565b5f6119ad82611983565b9150819050919050565b7f5472616e73666572206661696c656400000000000000000000000000000000005f82015250565b5f6119eb600f8361138a565b91506119f6826119b7565b602082019050919050565b5f6020820190508181035f830152611a18816119df565b905091905056fea26469706673582212204db8d6fde1901498879cd92c8050c6791889c825e51a7e17f1338ee314e7f1a064736f6c634300081b0033","linkReferences":{}},"methodIdentifiers":{"BETTING_DURATION()":"3fba1aeb","ROUND_DURATION()":"6641ea08","canDistribute()":"d677947e","deposit(uint8)":"ebe41b73","distribute(uint8)":"fb878cdc","getBettingTimeRemaining()":"9024342e","getCurrentRoundPhase()":"595112fe","getDepositorByIndex(uint8,uint256)":"4363674a","getRoundStartTime()":"d060be09","getRoundTimeRemaining()":"8d13f7de","getUserDeposit(uint8,address)":"ffd0f68c","getZoneDepositorCount(uint8)":"b67ae1cc","getZoneTotal(uint8)":"b946cf9e","isBettingOpen()":"ee4eb586","isUserDepositor(uint8,address)":"c0da2005","lastDistributionTime()":"75b17350","oracle()":"7dc0d1d0","roundStartTime()":"dd4f8f74","updateOracle(address)":"1cb44dfc","zones(uint8)":"76001dc4"},"id":20}