{"abi":[{"type":"constructor","inputs":[],"stateMutability":"nonpayable"},{"type":"function","name":"deposit","inputs":[{"name":"_zone","type":"uint8","internalType":"enum Cheeznad.Zone"}],"outputs":[],"stateMutability":"payable"},{"type":"function","name":"distribute","inputs":[{"name":"_winningZone","type":"uint8","internalType":"enum Cheeznad.Zone"}],"outputs":[],"stateMutability":"nonpayable"},{"type":"function","name":"getDepositorByIndex","inputs":[{"name":"_zone","type":"uint8","internalType":"enum Cheeznad.Zone"},{"name":"_index","type":"uint256","internalType":"uint256"}],"outputs":[{"name":"","type":"address","internalType":"address"}],"stateMutability":"view"},{"type":"function","name":"getUserDeposit","inputs":[{"name":"_zone","type":"uint8","internalType":"enum Cheeznad.Zone"},{"name":"_user","type":"address","internalType":"address"}],"outputs":[{"name":"","type":"uint256","internalType":"uint256"}],"stateMutability":"view"},{"type":"function","name":"getZoneDepositorCount","inputs":[{"name":"_zone","type":"uint8","internalType":"enum Cheeznad.Zone"}],"outputs":[{"name":"","type":"uint256","internalType":"uint256"}],"stateMutability":"view"},{"type":"function","name":"getZoneTotal","inputs":[{"name":"_zone","type":"uint8","internalType":"enum Cheeznad.Zone"}],"outputs":[{"name":"","type":"uint256","internalType":"uint256"}],"stateMutability":"view"},{"type":"function","name":"isUserDepositor","inputs":[{"name":"_zone","type":"uint8","internalType":"enum Cheeznad.Zone"},{"name":"_user","type":"address","internalType":"address"}],"outputs":[{"name":"","type":"bool","internalType":"bool"}],"stateMutability":"view"},{"type":"function","name":"oracle","inputs":[],"outputs":[{"name":"","type":"address","internalType":"address"}],"stateMutability":"view"},{"type":"function","name":"resetRound","inputs":[],"outputs":[],"stateMutability":"nonpayable"},{"type":"function","name":"roundNumber","inputs":[],"outputs":[{"name":"","type":"uint256","internalType":"uint256"}],"stateMutability":"view"},{"type":"function","name":"updateOracle","inputs":[{"name":"_newOracle","type":"address","internalType":"address"}],"outputs":[],"stateMutability":"nonpayable"},{"type":"function","name":"zones","inputs":[{"name":"","type":"uint8","internalType":"enum Cheeznad.Zone"}],"outputs":[{"name":"totalDeposited","type":"uint256","internalType":"uint256"},{"name":"depositorCount","type":"uint256","internalType":"uint256"}],"stateMutability":"view"},{"type":"event","name":"Deposit","inputs":[{"name":"user","type":"address","indexed":true,"internalType":"address"},{"name":"zone","type":"uint8","indexed":true,"internalType":"enum Cheeznad.Zone"},{"name":"amount","type":"uint256","indexed":false,"internalType":"uint256"}],"anonymous":false},{"type":"event","name":"Distribution","inputs":[{"name":"winningZone","type":"uint8","indexed":true,"internalType":"enum Cheeznad.Zone"},{"name":"totalAmount","type":"uint256","indexed":false,"internalType":"uint256"},{"name":"roundNumber","type":"uint256","indexed":false,"internalType":"uint256"}],"anonymous":false},{"type":"event","name":"OracleUpdated","inputs":[{"name":"newOracle","type":"address","indexed":true,"internalType":"address"}],"anonymous":false},{"type":"event","name":"RoundStarted","inputs":[{"name":"roundNumber","type":"uint256","indexed":false,"internalType":"uint256"}],"anonymous":false}],"bytecode":{"object":"0x6080604052348015600e575f5ffd5b503360015f6101000a81548173ffffffffffffffffffffffffffffffffffffffff021916908373ffffffffffffffffffffffffffffffffffffffff16021790555060016002819055507f33a701182892fd888ed152ca2ac23771a32e814469b7cd255965471e1af3a6596002546040516086919060a8565b60405180910390a160bf565b5f819050919050565b60a2816092565b82525050565b5f60208201905060b95f830184609b565b92915050565b611463806100cc5f395ff3fe6080604052600436106100a6575f3560e01c8063b67ae1cc11610063578063b67ae1cc146101b5578063b946cf9e146101f1578063c0da20051461022d578063ebe41b7314610269578063fb878cdc14610285578063ffd0f68c146102ad576100a6565b80631cb44dfc146100aa5780634363674a146100d25780634e2786fb1461010e57806376001dc4146101385780637dc0d1d01461017557806384d452ff1461019f575b5f5ffd5b3480156100b5575f5ffd5b506100d060048036038101906100cb9190610ef8565b6102e9565b005b3480156100dd575f5ffd5b506100f860048036038101906100f39190610f79565b61036f565b6040516101059190610fc6565b60405180910390f35b348015610119575f5ffd5b50610122610457565b60405161012f9190610fee565b60405180910390f35b348015610143575f5ffd5b5061015e60048036038101906101599190611007565b61045d565b60405161016c929190611032565b60405180910390f35b348015610180575f5ffd5b5061018961047c565b6040516101969190610fc6565b60405180910390f35b3480156101aa575f5ffd5b506101b36104a1565b005b3480156101c0575f5ffd5b506101db60048036038101906101d69190611007565b6104fb565b6040516101e89190610fee565b60405180910390f35b3480156101fc575f5ffd5b5061021760048036038101906102129190611007565b61053b565b6040516102249190610fee565b60405180910390f35b348015610238575f5ffd5b50610253600480360381019061024e9190611059565b61057a565b60405161026091906110b1565b60405180910390f35b610283600480360381019061027e9190611007565b610602565b005b348015610290575f5ffd5b506102ab60048036038101906102a69190611007565b610864565b005b3480156102b8575f5ffd5b506102d360048036038101906102ce9190611059565b610c85565b6040516102e09190610fee565b60405180910390f35b8060015f6101000a81548173ffffffffffffffffffffffffffffffffffffffff021916908373ffffffffffffffffffffffffffffffffffffffff1602179055508073ffffffffffffffffffffffffffffffffffffffff167f3df77beb5db05fcdd70a30fc8adf3f83f9501b68579455adbd100b818094039460405160405180910390a250565b5f5f5f846004811115610385576103846110ca565b5b6004811115610397576103966110ca565b5b81526020019081526020015f206004015482106103e9576040517f08c379a00000000000000000000000000000000000000000000000000000000081526004016103e090611151565b60405180910390fd5b5f5f8460048111156103fe576103fd6110ca565b5b60048111156104105761040f6110ca565b5b81526020019081526020015f206002015f8381526020019081526020015f205f9054906101000a900473ffffffffffffffffffffffffffffffffffffffff16905092915050565b60025481565b5f602052805f5260405f205f91509050805f0154908060040154905082565b60015f9054906101000a900473ffffffffffffffffffffffffffffffffffffffff1681565b6104a9610d01565b60025f8154809291906104bb9061119c565b91905055507f33a701182892fd888ed152ca2ac23771a32e814469b7cd255965471e1af3a6596002546040516104f19190610fee565b60405180910390a1565b5f5f5f836004811115610511576105106110ca565b5b6004811115610523576105226110ca565b5b81526020019081526020015f20600401549050919050565b5f5f5f836004811115610551576105506110ca565b5b6004811115610563576105626110ca565b5b81526020019081526020015f205f01549050919050565b5f5f5f8460048111156105905761058f6110ca565b5b60048111156105a2576105a16110ca565b5b81526020019081526020015f206003015f8373ffffffffffffffffffffffffffffffffffffffff1673ffffffffffffffffffffffffffffffffffffffff1681526020019081526020015f205f9054906101000a900460ff16905092915050565b5f3411610644576040517f08c379a000000000000000000000000000000000000000000000000000000000815260040161063b9061122d565b60405180910390fd5b5f5f5f83600481111561065a576106596110ca565b5b600481111561066c5761066b6110ca565b5b81526020019081526020015f209050806003015f3373ffffffffffffffffffffffffffffffffffffffff1673ffffffffffffffffffffffffffffffffffffffff1681526020019081526020015f205f9054906101000a900460ff166107915733816002015f836004015481526020019081526020015f205f6101000a81548173ffffffffffffffffffffffffffffffffffffffff021916908373ffffffffffffffffffffffffffffffffffffffff1602179055506001816003015f3373ffffffffffffffffffffffffffffffffffffffff1673ffffffffffffffffffffffffffffffffffffffff1681526020019081526020015f205f6101000a81548160ff021916908315150217905550806004015f81548092919061078b9061119c565b91905055505b34816001015f3373ffffffffffffffffffffffffffffffffffffffff1673ffffffffffffffffffffffffffffffffffffffff1681526020019081526020015f205f8282546107df919061124b565b9250508190555034815f015f8282546107f8919061124b565b92505081905550816004811115610812576108116110ca565b5b3373ffffffffffffffffffffffffffffffffffffffff167fe6ea2883ec66613be5cdd4954e8c4919bdb7982e6e2d907011bc051bfcde7fe4346040516108589190610fee565b60405180910390a35050565b5f4790505f811115610bdb575f5f5f846004811115610886576108856110ca565b5b6004811115610898576108976110ca565b5b81526020019081526020015f2090505f815f01541115610a21575f5f90505b8160040154811015610a1b575f826002015f8381526020019081526020015f205f9054906101000a900473ffffffffffffffffffffffffffffffffffffffff1690505f836001015f8373ffffffffffffffffffffffffffffffffffffffff1673ffffffffffffffffffffffffffffffffffffffff1681526020019081526020015f205490505f811115610a0c575f845f01548287610955919061127e565b61095f91906112ec565b90505f8373ffffffffffffffffffffffffffffffffffffffff168260405161098690611349565b5f6040518083038185875af1925050503d805f81146109c0576040519150601f19603f3d011682016040523d82523d5f602084013e6109c5565b606091505b5050905080610a09576040517f08c379a0000000000000000000000000000000000000000000000000000000008152600401610a00906113a7565b60405180910390fd5b50505b505080806001019150506108b7565b50610bd9565b5f5f90505b6005811015610bd7575f816004811115610a4357610a426110ca565b5b90505f5f5f836004811115610a5b57610a5a6110ca565b5b6004811115610a6d57610a6c6110ca565b5b81526020019081526020015f2090505f5f90505b8160040154811015610bc7575f826002015f8381526020019081526020015f205f9054906101000a900473ffffffffffffffffffffffffffffffffffffffff1690505f836001015f8373ffffffffffffffffffffffffffffffffffffffff1673ffffffffffffffffffffffffffffffffffffffff1681526020019081526020015f205490505f811115610bb8575f8273ffffffffffffffffffffffffffffffffffffffff1682604051610b3390611349565b5f6040518083038185875af1925050503d805f8114610b6d576040519150601f19603f3d011682016040523d82523d5f602084013e610b72565b606091505b5050905080610bb6576040517f08c379a0000000000000000000000000000000000000000000000000000000008152600401610bad9061140f565b60405180910390fd5b505b50508080600101915050610a81565b5050508080600101915050610a26565b505b505b610be3610d01565b60025f815480929190610bf59061119c565b9190505550816004811115610c0d57610c0c6110ca565b5b7f407b0b970273a32c25454089bf9df90dfa03ca38330d57729b4a12b106086e6e82600254604051610c40929190611032565b60405180910390a27f33a701182892fd888ed152ca2ac23771a32e814469b7cd255965471e1af3a659600254604051610c799190610fee565b60405180910390a15050565b5f5f5f846004811115610c9b57610c9a6110ca565b5b6004811115610cad57610cac6110ca565b5b81526020019081526020015f206001015f8373ffffffffffffffffffffffffffffffffffffffff1673ffffffffffffffffffffffffffffffffffffffff1681526020019081526020015f2054905092915050565b5f5f90505b6005811015610e97575f816004811115610d2357610d226110ca565b5b90505f5f5f836004811115610d3b57610d3a6110ca565b5b6004811115610d4d57610d4c6110ca565b5b81526020019081526020015f2090505f5f90505b8160040154811015610e76575f826002015f8381526020019081526020015f205f9054906101000a900473ffffffffffffffffffffffffffffffffffffffff169050826001015f8273ffffffffffffffffffffffffffffffffffffffff1673ffffffffffffffffffffffffffffffffffffffff1681526020019081526020015f205f9055826003015f8273ffffffffffffffffffffffffffffffffffffffff1673ffffffffffffffffffffffffffffffffffffffff1681526020019081526020015f205f6101000a81549060ff0219169055826002015f8381526020019081526020015f205f6101000a81549073ffffffffffffffffffffffffffffffffffffffff0219169055508080600101915050610d61565b505f81600401819055505f815f018190555050508080600101915050610d06565b50565b5f5ffd5b5f73ffffffffffffffffffffffffffffffffffffffff82169050919050565b5f610ec782610e9e565b9050919050565b610ed781610ebd565b8114610ee1575f5ffd5b50565b5f81359050610ef281610ece565b92915050565b5f60208284031215610f0d57610f0c610e9a565b5b5f610f1a84828501610ee4565b91505092915050565b60058110610f2f575f5ffd5b50565b5f81359050610f4081610f23565b92915050565b5f819050919050565b610f5881610f46565b8114610f62575f5ffd5b50565b5f81359050610f7381610f4f565b92915050565b5f5f60408385031215610f8f57610f8e610e9a565b5b5f610f9c85828601610f32565b9250506020610fad85828601610f65565b9150509250929050565b610fc081610ebd565b82525050565b5f602082019050610fd95f830184610fb7565b92915050565b610fe881610f46565b82525050565b5f6020820190506110015f830184610fdf565b92915050565b5f6020828403121561101c5761101b610e9a565b5b5f61102984828501610f32565b91505092915050565b5f6040820190506110455f830185610fdf565b6110526020830184610fdf565b9392505050565b5f5f6040838503121561106f5761106e610e9a565b5b5f61107c85828601610f32565b925050602061108d85828601610ee4565b9150509250929050565b5f8115159050919050565b6110ab81611097565b82525050565b5f6020820190506110c45f8301846110a2565b92915050565b7f4e487b71000000000000000000000000000000000000000000000000000000005f52602160045260245ffd5b5f82825260208201905092915050565b7f496e646578206f7574206f6620626f756e6473000000000000000000000000005f82015250565b5f61113b6013836110f7565b915061114682611107565b602082019050919050565b5f6020820190508181035f8301526111688161112f565b9050919050565b7f4e487b71000000000000000000000000000000000000000000000000000000005f52601160045260245ffd5b5f6111a682610f46565b91507fffffffffffffffffffffffffffffffffffffffffffffffffffffffffffffffff82036111d8576111d761116f565b5b600182019050919050565b7f4465706f736974206d7573742062652067726561746572207468616e203000005f82015250565b5f611217601e836110f7565b9150611222826111e3565b602082019050919050565b5f6020820190508181035f8301526112448161120b565b9050919050565b5f61125582610f46565b915061126083610f46565b92508282019050808211156112785761127761116f565b5b92915050565b5f61128882610f46565b915061129383610f46565b92508282026112a181610f46565b915082820484148315176112b8576112b761116f565b5b5092915050565b7f4e487b71000000000000000000000000000000000000000000000000000000005f52601260045260245ffd5b5f6112f682610f46565b915061130183610f46565b925082611311576113106112bf565b5b828204905092915050565b5f81905092915050565b50565b5f6113345f8361131c565b915061133f82611326565b5f82019050919050565b5f61135382611329565b9150819050919050565b7f5472616e73666572206661696c656400000000000000000000000000000000005f82015250565b5f611391600f836110f7565b915061139c8261135d565b602082019050919050565b5f6020820190508181035f8301526113be81611385565b9050919050565b7f526566756e64206661696c6564000000000000000000000000000000000000005f82015250565b5f6113f9600d836110f7565b9150611404826113c5565b602082019050919050565b5f6020820190508181035f830152611426816113ed565b905091905056fea2646970667358221220cf4e4aeb86be56971a47fc7900c5dbe6aa08da6c0a4117428e0a7a21706cc0e764736f6c634300081b0033","linkReferences":{}},"methodIdentifiers":{"deposit(uint8)":"ebe41b73","distribute(uint8)":"fb878cdc","getDepositorByIndex(uint8,uint256)":"4363674a","getUserDeposit(uint8,address)":"ffd0f68c","getZoneDepositorCount(uint8)":"b67ae1cc","getZoneTotal(uint8)":"b946cf9e","isUserDepositor(uint8,address)":"c0da2005","oracle()":"7dc0d1d0","resetRound()":"84d452ff","roundNumber()":"4e2786fb","updateOracle(address)":"1cb44dfc","zones(uint8)":"76001dc4"},"id":20}