{"abi":[{"type":"constructor","inputs":[{"name":"_oracle","type":"address","internalType":"address"}],"stateMutability":"nonpayable"},{"type":"function","name":"DISTRIBUTION_INTERVAL","inputs":[],"outputs":[{"name":"","type":"uint256","internalType":"uint256"}],"stateMutability":"view"},{"type":"function","name":"canDistribute","inputs":[],"outputs":[{"name":"","type":"bool","internalType":"bool"}],"stateMutability":"view"},{"type":"function","name":"deposit","inputs":[{"name":"_zone","type":"uint8","internalType":"enum Cheeznad.Zone"}],"outputs":[],"stateMutability":"payable"},{"type":"function","name":"distribute","inputs":[{"name":"_winningZone","type":"uint8","internalType":"enum Cheeznad.Zone"}],"outputs":[],"stateMutability":"nonpayable"},{"type":"function","name":"getDepositorByIndex","inputs":[{"name":"_zone","type":"uint8","internalType":"enum Cheeznad.Zone"},{"name":"_index","type":"uint256","internalType":"uint256"}],"outputs":[{"name":"","type":"address","internalType":"address"}],"stateMutability":"view"},{"type":"function","name":"getUserDeposit","inputs":[{"name":"_zone","type":"uint8","internalType":"enum Cheeznad.Zone"},{"name":"_user","type":"address","internalType":"address"}],"outputs":[{"name":"","type":"uint256","internalType":"uint256"}],"stateMutability":"view"},{"type":"function","name":"getZoneDepositorCount","inputs":[{"name":"_zone","type":"uint8","internalType":"enum Cheeznad.Zone"}],"outputs":[{"name":"","type":"uint256","internalType":"uint256"}],"stateMutability":"view"},{"type":"function","name":"getZoneTotal","inputs":[{"name":"_zone","type":"uint8","internalType":"enum Cheeznad.Zone"}],"outputs":[{"name":"","type":"uint256","internalType":"uint256"}],"stateMutability":"view"},{"type":"function","name":"isUserDepositor","inputs":[{"name":"_zone","type":"uint8","internalType":"enum Cheeznad.Zone"},{"name":"_user","type":"address","internalType":"address"}],"outputs":[{"name":"","type":"bool","internalType":"bool"}],"stateMutability":"view"},{"type":"function","name":"lastDistributionTime","inputs":[],"outputs":[{"name":"","type":"uint256","internalType":"uint256"}],"stateMutability":"view"},{"type":"function","name":"oracle","inputs":[],"outputs":[{"name":"","type":"address","internalType":"address"}],"stateMutability":"view"},{"type":"function","name":"updateOracle","inputs":[{"name":"_newOracle","type":"address","internalType":"address"}],"outputs":[],"stateMutability":"nonpayable"},{"type":"function","name":"zones","inputs":[{"name":"","type":"uint8","internalType":"enum Cheeznad.Zone"}],"outputs":[{"name":"totalDeposited","type":"uint256","internalType":"uint256"},{"name":"depositorCount","type":"uint256","internalType":"uint256"}],"stateMutability":"view"},{"type":"event","name":"Deposit","inputs":[{"name":"user","type":"address","indexed":true,"internalType":"address"},{"name":"zone","type":"uint8","indexed":true,"internalType":"enum Cheeznad.Zone"},{"name":"amount","type":"uint256","indexed":false,"internalType":"uint256"}],"anonymous":false},{"type":"event","name":"Distribution","inputs":[{"name":"winningZone","type":"uint8","indexed":true,"internalType":"enum Cheeznad.Zone"},{"name":"totalAmount","type":"uint256","indexed":false,"internalType":"uint256"},{"name":"timestamp","type":"uint256","indexed":false,"internalType":"uint256"}],"anonymous":false},{"type":"event","name":"OracleUpdated","inputs":[{"name":"newOracle","type":"address","indexed":true,"internalType":"address"}],"anonymous":false}],"bytecode":{"object":"0x608060405234801561000f575f5ffd5b506040516116f13803806116f1833981810160405281019061003191906100dc565b8060015f6101000a81548173ffffffffffffffffffffffffffffffffffffffff021916908373ffffffffffffffffffffffffffffffffffffffff1602179055504260028190555050610107565b5f5ffd5b5f73ffffffffffffffffffffffffffffffffffffffff82169050919050565b5f6100ab82610082565b9050919050565b6100bb816100a1565b81146100c5575f5ffd5b50565b5f815190506100d6816100b2565b92915050565b5f602082840312156100f1576100f061007e565b5b5f6100fe848285016100c8565b91505092915050565b6115dd806101145f395ff3fe6080604052600436106100c1575f3560e01c8063b67ae1cc1161007e578063d677947e11610058578063d677947e14610298578063ebe41b73146102c2578063fb878cdc146102de578063ffd0f68c14610306576100c1565b8063b67ae1cc146101e4578063b946cf9e14610220578063c0da20051461025c576100c1565b806308b26b75146100c55780631cb44dfc146100ef5780634363674a1461011757806375b173501461015357806376001dc41461017d5780637dc0d1d0146101ba575b5f5ffd5b3480156100d0575f5ffd5b506100d9610342565b6040516100e69190610ea8565b60405180910390f35b3480156100fa575f5ffd5b5061011560048036038101906101109190610f1f565b610347565b005b348015610122575f5ffd5b5061013d60048036038101906101389190610f97565b61045c565b60405161014a9190610fe4565b60405180910390f35b34801561015e575f5ffd5b50610167610544565b6040516101749190610ea8565b60405180910390f35b348015610188575f5ffd5b506101a3600480360381019061019e9190610ffd565b61054a565b6040516101b1929190611028565b60405180910390f35b3480156101c5575f5ffd5b506101ce610569565b6040516101db9190610fe4565b60405180910390f35b3480156101ef575f5ffd5b5061020a60048036038101906102059190610ffd565b61058e565b6040516102179190610ea8565b60405180910390f35b34801561022b575f5ffd5b5061024660048036038101906102419190610ffd565b6105ce565b6040516102539190610ea8565b60405180910390f35b348015610267575f5ffd5b50610282600480360381019061027d919061104f565b61060d565b60405161028f91906110a7565b60405180910390f35b3480156102a3575f5ffd5b506102ac610695565b6040516102b991906110a7565b60405180910390f35b6102dc60048036038101906102d79190610ffd565b6106ad565b005b3480156102e9575f5ffd5b5061030460048036038101906102ff9190610ffd565b61090f565b005b348015610311575f5ffd5b5061032c6004803603810190610327919061104f565b610c7b565b6040516103399190610ea8565b60405180910390f35b603c81565b60015f9054906101000a900473ffffffffffffffffffffffffffffffffffffffff1673ffffffffffffffffffffffffffffffffffffffff163373ffffffffffffffffffffffffffffffffffffffff16146103d6576040517f08c379a00000000000000000000000000000000000000000000000000000000081526004016103cd90611140565b60405180910390fd5b8060015f6101000a81548173ffffffffffffffffffffffffffffffffffffffff021916908373ffffffffffffffffffffffffffffffffffffffff1602179055508073ffffffffffffffffffffffffffffffffffffffff167f3df77beb5db05fcdd70a30fc8adf3f83f9501b68579455adbd100b818094039460405160405180910390a250565b5f5f5f8460048111156104725761047161115e565b5b60048111156104845761048361115e565b5b81526020019081526020015f206004015482106104d6576040517f08c379a00000000000000000000000000000000000000000000000000000000081526004016104cd906111d5565b60405180910390fd5b5f5f8460048111156104eb576104ea61115e565b5b60048111156104fd576104fc61115e565b5b81526020019081526020015f206002015f8381526020019081526020015f205f9054906101000a900473ffffffffffffffffffffffffffffffffffffffff16905092915050565b60025481565b5f602052805f5260405f205f91509050805f0154908060040154905082565b60015f9054906101000a900473ffffffffffffffffffffffffffffffffffffffff1681565b5f5f5f8360048111156105a4576105a361115e565b5b60048111156105b6576105b561115e565b5b81526020019081526020015f20600401549050919050565b5f5f5f8360048111156105e4576105e361115e565b5b60048111156105f6576105f561115e565b5b81526020019081526020015f205f01549050919050565b5f5f5f8460048111156106235761062261115e565b5b60048111156106355761063461115e565b5b81526020019081526020015f206003015f8373ffffffffffffffffffffffffffffffffffffffff1673ffffffffffffffffffffffffffffffffffffffff1681526020019081526020015f205f9054906101000a900460ff16905092915050565b5f603c6002546106a59190611220565b421015905090565b5f34116106ef576040517f08c379a00000000000000000000000000000000000000000000000000000000081526004016106e69061129d565b60405180910390fd5b5f5f5f8360048111156107055761070461115e565b5b60048111156107175761071661115e565b5b81526020019081526020015f209050806003015f3373ffffffffffffffffffffffffffffffffffffffff1673ffffffffffffffffffffffffffffffffffffffff1681526020019081526020015f205f9054906101000a900460ff1661083c5733816002015f836004015481526020019081526020015f205f6101000a81548173ffffffffffffffffffffffffffffffffffffffff021916908373ffffffffffffffffffffffffffffffffffffffff1602179055506001816003015f3373ffffffffffffffffffffffffffffffffffffffff1673ffffffffffffffffffffffffffffffffffffffff1681526020019081526020015f205f6101000a81548160ff021916908315150217905550806004015f815480929190610836906112bb565b91905055505b34816001015f3373ffffffffffffffffffffffffffffffffffffffff1673ffffffffffffffffffffffffffffffffffffffff1681526020019081526020015f205f82825461088a9190611220565b9250508190555034815f015f8282546108a39190611220565b925050819055508160048111156108bd576108bc61115e565b5b3373ffffffffffffffffffffffffffffffffffffffff167fe6ea2883ec66613be5cdd4954e8c4919bdb7982e6e2d907011bc051bfcde7fe4346040516109039190610ea8565b60405180910390a35050565b60015f9054906101000a900473ffffffffffffffffffffffffffffffffffffffff1673ffffffffffffffffffffffffffffffffffffffff163373ffffffffffffffffffffffffffffffffffffffff161461099e576040517f08c379a000000000000000000000000000000000000000000000000000000000815260040161099590611140565b60405180910390fd5b603c6002546109ad9190611220565b4210156109ef576040517f08c379a00000000000000000000000000000000000000000000000000000000081526004016109e690611372565b60405180910390fd5b5f4790505f8111610a35576040517f08c379a0000000000000000000000000000000000000000000000000000000008152600401610a2c906113da565b60405180910390fd5b5f5f5f846004811115610a4b57610a4a61115e565b5b6004811115610a5d57610a5c61115e565b5b81526020019081526020015f2090505f815f015411610ab1576040517f08c379a0000000000000000000000000000000000000000000000000000000008152600401610aa890611442565b60405180910390fd5b5f5f90505b8160040154811015610c1a575f826002015f8381526020019081526020015f205f9054906101000a900473ffffffffffffffffffffffffffffffffffffffff1690505f836001015f8373ffffffffffffffffffffffffffffffffffffffff1673ffffffffffffffffffffffffffffffffffffffff1681526020019081526020015f205490505f811115610c0b575f845f01548287610b549190611460565b610b5e91906114ce565b90505f8373ffffffffffffffffffffffffffffffffffffffff1682604051610b859061152b565b5f6040518083038185875af1925050503d805f8114610bbf576040519150601f19603f3d011682016040523d82523d5f602084013e610bc4565b606091505b5050905080610c08576040517f08c379a0000000000000000000000000000000000000000000000000000000008152600401610bff90611589565b60405180910390fd5b50505b50508080600101915050610ab6565b50610c23610cf7565b42600281905550826004811115610c3d57610c3c61115e565b5b7f407b0b970273a32c25454089bf9df90dfa03ca38330d57729b4a12b106086e6e8342604051610c6e929190611028565b60405180910390a2505050565b5f5f5f846004811115610c9157610c9061115e565b5b6004811115610ca357610ca261115e565b5b81526020019081526020015f206001015f8373ffffffffffffffffffffffffffffffffffffffff1673ffffffffffffffffffffffffffffffffffffffff1681526020019081526020015f2054905092915050565b5f5f90505b6005811015610e8d575f816004811115610d1957610d1861115e565b5b90505f5f5f836004811115610d3157610d3061115e565b5b6004811115610d4357610d4261115e565b5b81526020019081526020015f2090505f5f90505b8160040154811015610e6c575f826002015f8381526020019081526020015f205f9054906101000a900473ffffffffffffffffffffffffffffffffffffffff169050826001015f8273ffffffffffffffffffffffffffffffffffffffff1673ffffffffffffffffffffffffffffffffffffffff1681526020019081526020015f205f9055826003015f8273ffffffffffffffffffffffffffffffffffffffff1673ffffffffffffffffffffffffffffffffffffffff1681526020019081526020015f205f6101000a81549060ff0219169055826002015f8381526020019081526020015f205f6101000a81549073ffffffffffffffffffffffffffffffffffffffff0219169055508080600101915050610d57565b505f81600401819055505f815f018190555050508080600101915050610cfc565b50565b5f819050919050565b610ea281610e90565b82525050565b5f602082019050610ebb5f830184610e99565b92915050565b5f5ffd5b5f73ffffffffffffffffffffffffffffffffffffffff82169050919050565b5f610eee82610ec5565b9050919050565b610efe81610ee4565b8114610f08575f5ffd5b50565b5f81359050610f1981610ef5565b92915050565b5f60208284031215610f3457610f33610ec1565b5b5f610f4184828501610f0b565b91505092915050565b60058110610f56575f5ffd5b50565b5f81359050610f6781610f4a565b92915050565b610f7681610e90565b8114610f80575f5ffd5b50565b5f81359050610f9181610f6d565b92915050565b5f5f60408385031215610fad57610fac610ec1565b5b5f610fba85828601610f59565b9250506020610fcb85828601610f83565b9150509250929050565b610fde81610ee4565b82525050565b5f602082019050610ff75f830184610fd5565b92915050565b5f6020828403121561101257611011610ec1565b5b5f61101f84828501610f59565b91505092915050565b5f60408201905061103b5f830185610e99565b6110486020830184610e99565b9392505050565b5f5f6040838503121561106557611064610ec1565b5b5f61107285828601610f59565b925050602061108385828601610f0b565b9150509250929050565b5f8115159050919050565b6110a18161108d565b82525050565b5f6020820190506110ba5f830184611098565b92915050565b5f82825260208201905092915050565b7f4f6e6c79206f7261636c652063616e2063616c6c20746869732066756e6374695f8201527f6f6e000000000000000000000000000000000000000000000000000000000000602082015250565b5f61112a6022836110c0565b9150611135826110d0565b604082019050919050565b5f6020820190508181035f8301526111578161111e565b9050919050565b7f4e487b71000000000000000000000000000000000000000000000000000000005f52602160045260245ffd5b7f496e646578206f7574206f6620626f756e6473000000000000000000000000005f82015250565b5f6111bf6013836110c0565b91506111ca8261118b565b602082019050919050565b5f6020820190508181035f8301526111ec816111b3565b9050919050565b7f4e487b71000000000000000000000000000000000000000000000000000000005f52601160045260245ffd5b5f61122a82610e90565b915061123583610e90565b925082820190508082111561124d5761124c6111f3565b5b92915050565b7f4465706f736974206d7573742062652067726561746572207468616e203000005f82015250565b5f611287601e836110c0565b915061129282611253565b602082019050919050565b5f6020820190508181035f8301526112b48161127b565b9050919050565b5f6112c582610e90565b91507fffffffffffffffffffffffffffffffffffffffffffffffffffffffffffffffff82036112f7576112f66111f3565b5b600182019050919050565b7f446973747269627574696f6e20696e74657276616c206e6f74207265616368655f8201527f6400000000000000000000000000000000000000000000000000000000000000602082015250565b5f61135c6021836110c0565b915061136782611302565b604082019050919050565b5f6020820190508181035f83015261138981611350565b9050919050565b7f4e6f2066756e647320746f2064697374726962757465000000000000000000005f82015250565b5f6113c46016836110c0565b91506113cf82611390565b602082019050919050565b5f6020820190508181035f8301526113f1816113b8565b9050919050565b7f57696e6e696e67207a6f6e6520686173206e6f206465706f73697473000000005f82015250565b5f61142c601c836110c0565b9150611437826113f8565b602082019050919050565b5f6020820190508181035f83015261145981611420565b9050919050565b5f61146a82610e90565b915061147583610e90565b925082820261148381610e90565b9150828204841483151761149a576114996111f3565b5b5092915050565b7f4e487b71000000000000000000000000000000000000000000000000000000005f52601260045260245ffd5b5f6114d882610e90565b91506114e383610e90565b9250826114f3576114f26114a1565b5b828204905092915050565b5f81905092915050565b50565b5f6115165f836114fe565b915061152182611508565b5f82019050919050565b5f6115358261150b565b9150819050919050565b7f5472616e73666572206661696c656400000000000000000000000000000000005f82015250565b5f611573600f836110c0565b915061157e8261153f565b602082019050919050565b5f6020820190508181035f8301526115a081611567565b905091905056fea2646970667358221220d596d294296c5360dee44d461faceeffdffccbc22d5a110f2500acdad5df98b964736f6c634300081b0033","linkReferences":{}},"methodIdentifiers":{"DISTRIBUTION_INTERVAL()":"08b26b75","canDistribute()":"d677947e","deposit(uint8)":"ebe41b73","distribute(uint8)":"fb878cdc","getDepositorByIndex(uint8,uint256)":"4363674a","getUserDeposit(uint8,address)":"ffd0f68c","getZoneDepositorCount(uint8)":"b67ae1cc","getZoneTotal(uint8)":"b946cf9e","isUserDepositor(uint8,address)":"c0da2005","lastDistributionTime()":"75b17350","oracle()":"7dc0d1d0","updateOracle(address)":"1cb44dfc","zones(uint8)":"76001dc4"},"id":20}